{
  "_format": "hh-sol-artifact-1",
  "contractName": "DarkPool",
  "sourceName": "contracts/DarkPool.sol",
  "abi": [
    {
      "inputs": [
        {
          "internalType": "contract ERC20[]",
          "name": "_tokens",
          "type": "address[]"
        }
      ],
      "stateMutability": "nonpayable",
      "type": "constructor"
    },
    {
      "inputs": [],
      "name": "InvalidShortString",
      "type": "error"
    },
    {
      "inputs": [
        {
          "internalType": "string",
          "name": "str",
          "type": "string"
        }
      ],
      "name": "StringTooLong",
      "type": "error"
    },
    {
      "anonymous": false,
      "inputs": [],
      "name": "EIP712DomainChanged",
      "type": "event"
    },
    {
      "anonymous": false,
      "inputs": [
        {
          "indexed": true,
          "internalType": "address",
          "name": "user",
          "type": "address"
        },
        {
          "indexed": false,
          "internalType": "uint8",
          "name": "orderType",
          "type": "uint8"
        },
        {
          "indexed": false,
          "internalType": "euint32",
          "name": "amount",
          "type": "uint256"
        },
        {
          "indexed": false,
          "internalType": "euint32",
          "name": "price",
          "type": "uint256"
        }
      ],
      "name": "OrderCreated",
      "type": "event"
    },
    {
      "anonymous": false,
      "inputs": [
        {
          "indexed": true,
          "internalType": "address",
          "name": "user",
          "type": "address"
        },
        {
          "indexed": false,
          "internalType": "uint8",
          "name": "orderType",
          "type": "uint8"
        }
      ],
      "name": "OrderDeleted",
      "type": "event"
    },
    {
      "anonymous": false,
      "inputs": [
        {
          "indexed": true,
          "internalType": "address",
          "name": "user",
          "type": "address"
        },
        {
          "indexed": false,
          "internalType": "uint8",
          "name": "orderType",
          "type": "uint8"
        },
        {
          "indexed": false,
          "internalType": "euint32",
          "name": "amount",
          "type": "uint256"
        },
        {
          "indexed": false,
          "internalType": "euint32",
          "name": "price",
          "type": "uint256"
        }
      ],
      "name": "OrderUpdated",
      "type": "event"
    },
    {
      "inputs": [],
      "name": "BASE_INDEX",
      "outputs": [
        {
          "internalType": "uint8",
          "name": "",
          "type": "uint8"
        }
      ],
      "stateMutability": "view",
      "type": "function"
    },
    {
      "inputs": [],
      "name": "QUOTE_INDEX",
      "outputs": [
        {
          "internalType": "uint8",
          "name": "",
          "type": "uint8"
        }
      ],
      "stateMutability": "view",
      "type": "function"
    },
    {
      "inputs": [
        {
          "internalType": "address",
          "name": "",
          "type": "address"
        },
        {
          "internalType": "uint8",
          "name": "",
          "type": "uint8"
        }
      ],
      "name": "balances",
      "outputs": [
        {
          "internalType": "euint32",
          "name": "",
          "type": "uint256"
        }
      ],
      "stateMutability": "view",
      "type": "function"
    },
    {
      "inputs": [
        {
          "internalType": "enum DarkPool.OrderType",
          "name": "orderType",
          "type": "uint8"
        },
        {
          "internalType": "bytes",
          "name": "amountCypherText",
          "type": "bytes"
        },
        {
          "internalType": "bytes",
          "name": "priceCypherText",
          "type": "bytes"
        }
      ],
      "name": "createOrder",
      "outputs": [],
      "stateMutability": "nonpayable",
      "type": "function"
    },
    {
      "inputs": [
        {
          "internalType": "address",
          "name": "user",
          "type": "address"
        },
        {
          "internalType": "enum DarkPool.OrderType",
          "name": "orderType",
          "type": "uint8"
        }
      ],
      "name": "deleteOrder",
      "outputs": [],
      "stateMutability": "nonpayable",
      "type": "function"
    },
    {
      "inputs": [
        {
          "internalType": "uint8",
          "name": "tokenId",
          "type": "uint8"
        },
        {
          "internalType": "uint32",
          "name": "amount",
          "type": "uint32"
        }
      ],
      "name": "deposit",
      "outputs": [],
      "stateMutability": "nonpayable",
      "type": "function"
    },
    {
      "inputs": [],
      "name": "eip712Domain",
      "outputs": [
        {
          "internalType": "bytes1",
          "name": "fields",
          "type": "bytes1"
        },
        {
          "internalType": "string",
          "name": "name",
          "type": "string"
        },
        {
          "internalType": "string",
          "name": "version",
          "type": "string"
        },
        {
          "internalType": "uint256",
          "name": "chainId",
          "type": "uint256"
        },
        {
          "internalType": "address",
          "name": "verifyingContract",
          "type": "address"
        },
        {
          "internalType": "bytes32",
          "name": "salt",
          "type": "bytes32"
        },
        {
          "internalType": "uint256[]",
          "name": "extensions",
          "type": "uint256[]"
        }
      ],
      "stateMutability": "view",
      "type": "function"
    },
    {
      "inputs": [
        {
          "internalType": "address",
          "name": "buyer",
          "type": "address"
        },
        {
          "internalType": "address",
          "name": "seller",
          "type": "address"
        }
      ],
      "name": "fillOrder",
      "outputs": [],
      "stateMutability": "nonpayable",
      "type": "function"
    },
    {
      "inputs": [
        {
          "internalType": "uint8",
          "name": "tokenId",
          "type": "uint8"
        },
        {
          "internalType": "bytes32",
          "name": "publicKey",
          "type": "bytes32"
        },
        {
          "internalType": "bytes",
          "name": "signature",
          "type": "bytes"
        }
      ],
      "name": "getBalance",
      "outputs": [
        {
          "internalType": "bytes",
          "name": "",
          "type": "bytes"
        }
      ],
      "stateMutability": "view",
      "type": "function"
    },
    {
      "inputs": [
        {
          "internalType": "address",
          "name": "",
          "type": "address"
        },
        {
          "internalType": "enum DarkPool.OrderType",
          "name": "",
          "type": "uint8"
        }
      ],
      "name": "orders",
      "outputs": [
        {
          "internalType": "euint32",
          "name": "amount",
          "type": "uint256"
        },
        {
          "internalType": "euint32",
          "name": "price",
          "type": "uint256"
        }
      ],
      "stateMutability": "view",
      "type": "function"
    },
    {
      "inputs": [
        {
          "internalType": "enum DarkPool.OrderType",
          "name": "orderType",
          "type": "uint8"
        }
      ],
      "name": "retractOrder",
      "outputs": [],
      "stateMutability": "nonpayable",
      "type": "function"
    },
    {
      "inputs": [
        {
          "internalType": "uint256",
          "name": "",
          "type": "uint256"
        }
      ],
      "name": "tokens",
      "outputs": [
        {
          "internalType": "contract ERC20",
          "name": "",
          "type": "address"
        }
      ],
      "stateMutability": "view",
      "type": "function"
    },
    {
      "inputs": [
        {
          "internalType": "uint8",
          "name": "tokenId",
          "type": "uint8"
        },
        {
          "internalType": "uint32",
          "name": "amount",
          "type": "uint32"
        }
      ],
      "name": "withdraw",
      "outputs": [],
      "stateMutability": "nonpayable",
      "type": "function"
    }
  ],
  "bytecode": "0x6101606040523480156200001257600080fd5b506040516200498138038062004981833981810160405281019062000038919062000563565b6040518060400160405280600881526020017f4461726b506f6f6c0000000000000000000000000000000000000000000000008152506040518060400160405280600181526020017f31000000000000000000000000000000000000000000000000000000000000008152508181620000c16000836200018260201b620017da1790919060201c565b6101208181525050620000e46001826200018260201b620017da1790919060201c565b6101408181525050818051906020012060e08181525050808051906020012061010081815250504660a0818152505062000123620001df60201b60201c565b608081815250503073ffffffffffffffffffffffffffffffffffffffff1660c08173ffffffffffffffffffffffffffffffffffffffff16815250505050505080600290805190602001906200017a929190620002b3565b505062000ac4565b6000602083511015620001a857620001a0836200023c60201b60201c565b9050620001d9565b82620001bf83620002a960201b6200181e1760201c565b6000019081620001d09190620007ff565b5060ff60001b90505b92915050565b60007f8b73c3c69bb8fe3d512ecc4cf759cc79239f7b179b0ffacaa9a75d522b39400f60e0516101005146306040516020016200022195949392919062000923565b60405160208183030381529060405280519060200120905090565b600080829050601f815111156200028c57826040517f305a27a9000000000000000000000000000000000000000000000000000000008152600401620002839190620009fe565b60405180910390fd5b8051816200029a9062000a54565b60001c1760001b915050919050565b6000819050919050565b8280548282559060005260206000209081019282156200032f579160200282015b828111156200032e5782518260006101000a81548173ffffffffffffffffffffffffffffffffffffffff021916908373ffffffffffffffffffffffffffffffffffffffff16021790555091602001919060010190620002d4565b5b5090506200033e919062000342565b5090565b5b808211156200035d57600081600090555060010162000343565b5090565b6000604051905090565b600080fd5b600080fd5b600080fd5b6000601f19601f8301169050919050565b7f4e487b7100000000000000000000000000000000000000000000000000000000600052604160045260246000fd5b620003c5826200037a565b810181811067ffffffffffffffff82111715620003e757620003e66200038b565b5b80604052505050565b6000620003fc62000361565b90506200040a8282620003ba565b919050565b600067ffffffffffffffff8211156200042d576200042c6200038b565b5b602082029050602081019050919050565b600080fd5b600073ffffffffffffffffffffffffffffffffffffffff82169050919050565b6000620004708262000443565b9050919050565b6000620004848262000463565b9050919050565b620004968162000477565b8114620004a257600080fd5b50565b600081519050620004b6816200048b565b92915050565b6000620004d3620004cd846200040f565b620003f0565b90508083825260208201905060208402830185811115620004f957620004f86200043e565b5b835b81811015620005265780620005118882620004a5565b845260208401935050602081019050620004fb565b5050509392505050565b600082601f83011262000548576200054762000375565b5b81516200055a848260208601620004bc565b91505092915050565b6000602082840312156200057c576200057b6200036b565b5b600082015167ffffffffffffffff8111156200059d576200059c62000370565b5b620005ab8482850162000530565b91505092915050565b600081519050919050565b7f4e487b7100000000000000000000000000000000000000000000000000000000600052602260045260246000fd5b600060028204905060018216806200060757607f821691505b6020821081036200061d576200061c620005bf565b5b50919050565b60008190508160005260206000209050919050565b60006020601f8301049050919050565b600082821b905092915050565b600060088302620006877fffffffffffffffffffffffffffffffffffffffffffffffffffffffffffffffff8262000648565b62000693868362000648565b95508019841693508086168417925050509392505050565b6000819050919050565b6000819050919050565b6000620006e0620006da620006d484620006ab565b620006b5565b620006ab565b9050919050565b6000819050919050565b620006fc83620006bf565b620007146200070b82620006e7565b84845462000655565b825550505050565b600090565b6200072b6200071c565b62000738818484620006f1565b505050565b5b8181101562000760576200075460008262000721565b6001810190506200073e565b5050565b601f821115620007af57620007798162000623565b620007848462000638565b8101602085101562000794578190505b620007ac620007a38562000638565b8301826200073d565b50505b505050565b600082821c905092915050565b6000620007d460001984600802620007b4565b1980831691505092915050565b6000620007ef8383620007c1565b9150826002028217905092915050565b6200080a82620005b4565b67ffffffffffffffff8111156200082657620008256200038b565b5b620008328254620005ee565b6200083f82828562000764565b600060209050601f83116001811462000877576000841562000862578287015190505b6200086e8582620007e1565b865550620008de565b601f198416620008878662000623565b60005b82811015620008b1578489015182556001820191506020850194506020810190506200088a565b86831015620008d15784890151620008cd601f891682620007c1565b8355505b6001600288020188555050505b505050505050565b6000819050919050565b620008fb81620008e6565b82525050565b6200090c81620006ab565b82525050565b6200091d8162000463565b82525050565b600060a0820190506200093a6000830188620008f0565b620009496020830187620008f0565b620009586040830186620008f0565b62000967606083018562000901565b62000976608083018462000912565b9695505050505050565b600082825260208201905092915050565b60005b83811015620009b157808201518184015260208101905062000994565b60008484015250505050565b6000620009ca82620005b4565b620009d6818562000980565b9350620009e881856020860162000991565b620009f3816200037a565b840191505092915050565b6000602082019050818103600083015262000a1a8184620009bd565b905092915050565b600081519050919050565b6000819050602082019050919050565b600062000a4b8251620008e6565b80915050919050565b600062000a618262000a22565b8262000a6d8462000a2d565b905062000a7a8162000a3d565b9250602082101562000abd5762000ab87fffffffffffffffffffffffffffffffffffffffffffffffffffffffffffffffff8360200360080262000648565b831692505b5050919050565b60805160a05160c05160e051610100516101205161014051613e6262000b1f60003960006111ef015260006111bb015260006129d7015260006129b6015260006125340152600061258a015260006125b30152613e626000f3fe608060405234801561001057600080fd5b50600436106100df5760003560e01c806377ed12991161008c5780639c4d696e116100665780639c4d696e14610213578063a6ba96c214610231578063c705c60e1461024d578063d7be9cd41461027d576100df565b806377ed1299146101b557806384b0196e146101d1578063884f425a146101f5576100df565b806358929f2e116100bd57806358929f2e1461014c5780635920d7ce14610168578063642d5b9914610184576100df565b80630a1e8c4d146100e45780633a5ee8be146101005780634f64b2be1461011c575b600080fd5b6100fe60048036038101906100f99190612bcc565b6102ad565b005b61011a60048036038101906101159190612c31565b610433565b005b61013660048036038101906101319190612c94565b61051d565b6040516101439190612d40565b60405180910390f35b61016660048036038101906101619190612d99565b61055c565b005b610182600480360381019061017d9190612e3e565b610742565b005b61019e60048036038101906101999190612d99565b6107f8565b6040516101ac929190612f04565b60405180910390f35b6101cf60048036038101906101ca9190612f2d565b610829565b005b6101d96111a8565b6040516101ec979695949392919061312d565b60405180910390f35b6101fd6112aa565b60405161020a91906131c0565b60405180910390f35b61021b6112af565b60405161022891906131c0565b60405180910390f35b61024b60048036038101906102469190612bcc565b6112b4565b005b610267600480360381019061026291906131db565b61162e565b604051610274919061321b565b60405180910390f35b61029760048036038101906102929190613262565b611653565b6040516102a4919061332b565b60405180910390f35b60028260ff16815481106102c4576102c361334d565b5b9060005260206000200160009054906101000a900473ffffffffffffffffffffffffffffffffffffffff1673ffffffffffffffffffffffffffffffffffffffff166323b872dd3330846040518463ffffffff1660e01b815260040161032b939291906133ad565b6020604051808303816000875af115801561034a573d6000803e3d6000fd5b505050506040513d601f19601f8201168201806040525081019061036e919061341c565b506000600360003373ffffffffffffffffffffffffffffffffffffffff1673ffffffffffffffffffffffffffffffffffffffff16815260200190815260200160002060008460ff1660ff1681526020019081526020016000205490506103d48183611828565b600360003373ffffffffffffffffffffffffffffffffffffffff1673ffffffffffffffffffffffffffffffffffffffff16815260200190815260200160002060008560ff1660ff16815260200190815260200160002081905550505050565b600460003373ffffffffffffffffffffffffffffffffffffffff1673ffffffffffffffffffffffffffffffffffffffff168152602001908152602001600020600082600181111561048757610486613449565b5b600181111561049957610498613449565b5b8152602001908152602001600020600080820160009055600182016000905550503373ffffffffffffffffffffffffffffffffffffffff167f6f95558f31cd3ba48e970d3c39be9db1b2eb86ea311e1e814f2cdfa974a25fe382600181111561050557610504613449565b5b60405161051291906131c0565b60405180910390a250565b6002818154811061052d57600080fd5b906000526020600020016000915054906101000a900473ffffffffffffffffffffffffffffffffffffffff1681565b6000600460008473ffffffffffffffffffffffffffffffffffffffff1673ffffffffffffffffffffffffffffffffffffffff16815260200190815260200160002060008360018111156105b2576105b1613449565b5b60018111156105c4576105c3613449565b5b81526020019081526020016000206040518060400160405290816000820154815260200160018201548152505090506106008160000151611844565b61063f576040517f08c379a0000000000000000000000000000000000000000000000000000000008152600401610636906134c4565b60405180910390fd5b61065661065182600001516000611851565b61186d565b600460008473ffffffffffffffffffffffffffffffffffffffff1673ffffffffffffffffffffffffffffffffffffffff16815260200190815260200160002060008360018111156106aa576106a9613449565b5b60018111156106bc576106bb613449565b5b8152602001908152602001600020600080820160009055600182016000905550508273ffffffffffffffffffffffffffffffffffffffff167f6f95558f31cd3ba48e970d3c39be9db1b2eb86ea311e1e814f2cdfa974a25fe383600181111561072857610727613449565b5b60405161073591906131c0565b60405180910390a2505050565b600061079185858080601f016020809104026020016040519081016040528093929190818152602001838380828437600081840152601f19601f82011690508083019250505050505050611879565b905060006107e284848080601f016020809104026020016040519081016040528093929190818152602001838380828437600081840152601f19601f82011690508083019250505050505050611879565b90506107ef87838361188d565b50505050505050565b6004602052816000526040600020602052806000526040600020600091509150508060000154908060010154905082565b6000600460008473ffffffffffffffffffffffffffffffffffffffff1673ffffffffffffffffffffffffffffffffffffffff168152602001908152602001600020600080600181111561087f5761087e613449565b5b600181111561089157610890613449565b5b81526020019081526020016000206040518060400160405290816000820154815260200160018201548152505090506000600460008473ffffffffffffffffffffffffffffffffffffffff1673ffffffffffffffffffffffffffffffffffffffff168152602001908152602001600020600060018081111561091657610915613449565b5b600181111561092857610927613449565b5b8152602001908152602001600020604051806040016040529081600082015481526020016001820154815250509050600061096b82600001518460000151611b88565b905060006109a661098485602001518560200151611b9e565b6109978486600001518860000151611bb4565b6109a16000611bca565b611bb4565b905060006109b8828560200151611bde565b90506109c8856000015183611bf4565b600460008973ffffffffffffffffffffffffffffffffffffffff1673ffffffffffffffffffffffffffffffffffffffff1681526020019081526020016000206000806001811115610a1c57610a1b613449565b5b6001811115610a2e57610a2d613449565b5b815260200190815260200160002060000181905550610a51846000015183611bf4565b600460008873ffffffffffffffffffffffffffffffffffffffff1673ffffffffffffffffffffffffffffffffffffffff1681526020019081526020016000206000600180811115610aa557610aa4613449565b5b6001811115610ab757610ab6613449565b5b815260200190815260200160002060000181905550610b2c600360008873ffffffffffffffffffffffffffffffffffffffff1673ffffffffffffffffffffffffffffffffffffffff16815260200190815260200160002060008060ff1660ff1681526020019081526020016000205483611bf4565b600360008873ffffffffffffffffffffffffffffffffffffffff1673ffffffffffffffffffffffffffffffffffffffff16815260200190815260200160002060008060ff1660ff16815260200190815260200160002081905550610be6600360008973ffffffffffffffffffffffffffffffffffffffff1673ffffffffffffffffffffffffffffffffffffffff16815260200190815260200160002060008060ff1660ff1681526020019081526020016000205483611c0a565b600360008973ffffffffffffffffffffffffffffffffffffffff1673ffffffffffffffffffffffffffffffffffffffff16815260200190815260200160002060008060ff1660ff16815260200190815260200160002081905550610ca1600360008873ffffffffffffffffffffffffffffffffffffffff1673ffffffffffffffffffffffffffffffffffffffff1681526020019081526020016000206000600160ff1660ff1681526020019081526020016000205482611c0a565b600360008873ffffffffffffffffffffffffffffffffffffffff1673ffffffffffffffffffffffffffffffffffffffff1681526020019081526020016000206000600160ff1660ff16815260200190815260200160002081905550610d5d600360008973ffffffffffffffffffffffffffffffffffffffff1673ffffffffffffffffffffffffffffffffffffffff1681526020019081526020016000206000600160ff1660ff1681526020019081526020016000205482611bf4565b600360008973ffffffffffffffffffffffffffffffffffffffff1673ffffffffffffffffffffffffffffffffffffffff1681526020019081526020016000206000600160ff1660ff16815260200190815260200160002081905550610dde610dca86600001516000611c20565b610dd46000611bca565b8760200151611bb4565b600460008973ffffffffffffffffffffffffffffffffffffffff1673ffffffffffffffffffffffffffffffffffffffff1681526020019081526020016000206000806001811115610e3257610e31613449565b5b6001811115610e4457610e43613449565b5b815260200190815260200160002060010181905550610e7f610e6b85600001516000611c20565b610e756000611bca565b8660200151611bb4565b600460008873ffffffffffffffffffffffffffffffffffffffff1673ffffffffffffffffffffffffffffffffffffffff1681526020019081526020016000206000600180811115610ed357610ed2613449565b5b6001811115610ee557610ee4613449565b5b8152602001908152602001600020600101819055508673ffffffffffffffffffffffffffffffffffffffff167fe8dc0893c97a0b8acf572bd6d26f3fc001198708613f96c86b8c55a813d88a6260006001811115610f4657610f45613449565b5b600460008b73ffffffffffffffffffffffffffffffffffffffff1673ffffffffffffffffffffffffffffffffffffffff1681526020019081526020016000206000806001811115610f9a57610f99613449565b5b6001811115610fac57610fab613449565b5b815260200190815260200160002060000154600460008c73ffffffffffffffffffffffffffffffffffffffff1673ffffffffffffffffffffffffffffffffffffffff168152602001908152602001600020600080600181111561101257611011613449565b5b600181111561102457611023613449565b5b815260200190815260200160002060010154604051611045939291906134e4565b60405180910390a28573ffffffffffffffffffffffffffffffffffffffff167fe8dc0893c97a0b8acf572bd6d26f3fc001198708613f96c86b8c55a813d88a6260018081111561109857611097613449565b5b600460008a73ffffffffffffffffffffffffffffffffffffffff1673ffffffffffffffffffffffffffffffffffffffff16815260200190815260200160002060006001808111156110ec576110eb613449565b5b60018111156110fe576110fd613449565b5b815260200190815260200160002060000154600460008b73ffffffffffffffffffffffffffffffffffffffff1673ffffffffffffffffffffffffffffffffffffffff168152602001908152602001600020600060018081111561116457611163613449565b5b600181111561117657611175613449565b5b815260200190815260200160002060010154604051611197939291906134e4565b60405180910390a250505050505050565b6000606080600080600060606111e860007f0000000000000000000000000000000000000000000000000000000000000000611c3c90919063ffffffff16565b61121c60017f0000000000000000000000000000000000000000000000000000000000000000611c3c90919063ffffffff16565b46306000801b600067ffffffffffffffff81111561123d5761123c61351b565b5b60405190808252806020026020018201604052801561126b5781602001602082028036833780820191505090505b507f0f00000000000000000000000000000000000000000000000000000000000000959493929190965096509650965096509650965090919293949596565b600181565b600081565b600060ff168260ff160361138757611342600460003373ffffffffffffffffffffffffffffffffffffffff1673ffffffffffffffffffffffffffffffffffffffff168152602001908152602001600020600060018081111561131957611318613449565b5b600181111561132b5761132a613449565b5b815260200190815260200160002060000154611844565b15611382576040517f08c379a0000000000000000000000000000000000000000000000000000000008152600401611379906135bc565b60405180910390fd5b611448565b611407600460003373ffffffffffffffffffffffffffffffffffffffff1673ffffffffffffffffffffffffffffffffffffffff16815260200190815260200160002060008060018111156113de576113dd613449565b5b60018111156113f0576113ef613449565b5b815260200190815260200160002060000154611844565b15611447576040517f08c379a000000000000000000000000000000000000000000000000000000000815260040161143e9061364e565b60405180910390fd5b5b6114b06114ab600360003373ffffffffffffffffffffffffffffffffffffffff1673ffffffffffffffffffffffffffffffffffffffff16815260200190815260200160002060008560ff1660ff1681526020019081526020016000205483611cec565b61186d565b60028260ff16815481106114c7576114c661334d565b5b9060005260206000200160009054906101000a900473ffffffffffffffffffffffffffffffffffffffff1673ffffffffffffffffffffffffffffffffffffffff1663a9059cbb33836040518363ffffffff1660e01b815260040161152c92919061366e565b6020604051808303816000875af115801561154b573d6000803e3d6000fd5b505050506040513d601f19601f8201168201806040525081019061156f919061341c565b506115d0600360003373ffffffffffffffffffffffffffffffffffffffff1673ffffffffffffffffffffffffffffffffffffffff16815260200190815260200160002060008460ff1660ff1681526020019081526020016000205482611d08565b600360003373ffffffffffffffffffffffffffffffffffffffff1673ffffffffffffffffffffffffffffffffffffffff16815260200190815260200160002060008460ff1660ff168152602001908152602001600020819055505050565b6003602052816000526040600020602052806000526040600020600091509150505481565b60608383838080601f016020809104026020016040519081016040528093929190818152602001838380828437600081840152601f19601f8201169050808301925050505050505060006116ee7f051d137ae0e1fae6e3b6559fed4442b35a85a9a39789838ad5c9ea05e7da2dce846040516020016116d3929190613697565b60405160208183030381529060405280519060200120611d24565b905060006116fc8284611d3e565b90503373ffffffffffffffffffffffffffffffffffffffff168173ffffffffffffffffffffffffffffffffffffffff161461176c576040517f08c379a000000000000000000000000000000000000000000000000000000000815260040161176390613732565b60405180910390fd5b6117cc600360003373ffffffffffffffffffffffffffffffffffffffff1673ffffffffffffffffffffffffffffffffffffffff16815260200190815260200160002060008b60ff1660ff1681526020019081526020016000205489611d65565b945050505050949350505050565b60006020835110156117f6576117ef83611d79565b9050611818565b826118008361181e565b600001908161180f9190613932565b5060ff60001b90505b92915050565b6000819050919050565b600061183c838363ffffffff166001611de1565b905092915050565b6000808214159050919050565b6000611865838363ffffffff166001611ea5565b905092915050565b61187681611f48565b50565b6000611886826002611f94565b9050919050565b611917611912600460003373ffffffffffffffffffffffffffffffffffffffff1673ffffffffffffffffffffffffffffffffffffffff16815260200190815260200160002060008660018111156118e7576118e6613449565b5b60018111156118f9576118f8613449565b5b8152602001908152602001600020600001546000612014565b611844565b15611957576040517f08c379a000000000000000000000000000000000000000000000000000000000815260040161194e90613a76565b60405180910390fd5b600080600181111561196c5761196b613449565b5b84600181111561197f5761197e613449565b5b03611a0857611a016119f16119948585611bde565b600360003373ffffffffffffffffffffffffffffffffffffffff1673ffffffffffffffffffffffffffffffffffffffff1681526020019081526020016000206000600160ff1660ff16815260200190815260200160002054611b88565b846119fc6000611bca565b611bb4565b9050611a7e565b611a7b611a6b84600360003373ffffffffffffffffffffffffffffffffffffffff1673ffffffffffffffffffffffffffffffffffffffff16815260200190815260200160002060008060ff1660ff16815260200190815260200160002054611b88565b84611a766000611bca565b611bb4565b90505b604051806040016040528082815260200183815250600460003373ffffffffffffffffffffffffffffffffffffffff1673ffffffffffffffffffffffffffffffffffffffff1681526020019081526020016000206000866001811115611ae757611ae6613449565b5b6001811115611af957611af8613449565b5b815260200190815260200160002060008201518160000155602082015181600101559050503373ffffffffffffffffffffffffffffffffffffffff167f64efe28688616d9fee5c96a9146e693d9da42ddfb7fe45c83581ed7993fbce7d856001811115611b6957611b68613449565b5b8585604051611b7a939291906134e4565b60405180910390a250505050565b6000611b9683836000612030565b905092915050565b6000611bac83836000611ea5565b905092915050565b6000611bc18484846120d3565b90509392505050565b6000611bd782600261222f565b9050919050565b6000611bec838360006122b2565b905092915050565b6000611c0283836000612355565b905092915050565b6000611c1883836000611de1565b905092915050565b6000611c34838363ffffffff166001612030565b905092915050565b606060ff60001b8314611c5957611c5283612419565b9050611ce6565b818054611c6590613781565b80601f0160208091040260200160405190810160405280929190818152602001828054611c9190613781565b8015611cde5780601f10611cb357610100808354040283529160200191611cde565b820191906000526020600020905b815481529060010190602001808311611cc157829003601f168201915b505050505090505b92915050565b6000611d00838363ffffffff16600161248d565b905092915050565b6000611d1c838363ffffffff166001612355565b905092915050565b6000611d37611d31612530565b836125e7565b9050919050565b6000806000611d4d8585612628565b91509150611d5a81612679565b819250505092915050565b6060611d7183836127df565b905092915050565b600080829050601f81511115611dc657826040517f305a27a9000000000000000000000000000000000000000000000000000000008152600401611dbd9190613a96565b60405180910390fd5b805181611dd290613add565b60001c1760001b915050919050565b6000808403611df257829050611e9e565b60008303611e0257839050611e9e565b60008215611e1657600160f81b9050611e1e565b600060f81b90505b60008560001b8560001b83604051602001611e3b93929190613b86565b6040516020818303038152906040529050600081519050611e5a612b09565b60006020905060006041905081838560208801845afa611e7957600080fd5b82600060018110611e8d57611e8c61334d565b5b602002015160001c96505050505050505b9392505050565b6000808215611eba57600160f81b9050611ec2565b600060f81b90505b60008560001b8560001b83604051602001611edf93929190613b86565b6040516020818303038152906040529050600081519050611efe612b09565b60006020905060006051905081838560208801845afa611f1d57600080fd5b82600060018110611f3157611f3061334d565b5b602002015160001c96505050505050509392505050565b611f50612b09565b8160001b81600060018110611f6857611f6761334d565b5b6020020181815250506000602090506000604590506000808385845afa611f8e57600080fd5b50505050565b600080838360f81b604051602001611fad929190613bff565b6040516020818303038152906040529050600081519050611fcc612b09565b60006020905060006042905081838560208801845afa611feb57600080fd5b82600060018110611fff57611ffe61334d565b5b602002015160001c9550505050505092915050565b6000612028838363ffffffff16600161289e565b905092915050565b600080821561204557600160f81b905061204d565b600060f81b90505b60008560001b8560001b8360405160200161206a93929190613b86565b6040516020818303038152906040529050600081519050612089612b09565b60006020905060006046905081838560208801845afa6120a857600080fd5b826000600181106120bc576120bb61334d565b5b602002015160001c96505050505050509392505050565b6000808360001b8360001b600060f81b6040516020016120f593929190613b86565b6040516020818303038152906040529050600081519050612114612b09565b60006020905060006047905081838560208801845afa61213357600080fd5b8860001b8360006001811061214b5761214a61334d565b5b6020020151600060f81b60405160200161216793929190613b86565b60405160208183030381529060405294508451935060489050612188612b09565b82818660208901855afa61219b57600080fd5b806000600181106121af576121ae61334d565b5b60200201518860001b600060f81b6040516020016121cf93929190613b86565b604051602081830303815290604052955085519450604191506121f0612b09565b83818760208a01865afa61220357600080fd5b806000600181106122175761221661334d565b5b602002015160001c9750505050505050509392505050565b6000808360001b8360f81b60405160200161224b929190613c27565b604051602081830303815290604052905060008151905061226a612b09565b6000602090506000604d905081838560208801845afa61228957600080fd5b8260006001811061229d5761229c61334d565b5b602002015160001c9550505050505092915050565b60008082156122c757600160f81b90506122cf565b600060f81b90505b60008560001b8560001b836040516020016122ec93929190613b86565b604051602081830303815290604052905060008151905061230b612b09565b60006020905060006048905081838560208801845afa61232a57600080fd5b8260006001811061233e5761233d61334d565b5b602002015160001c96505050505050509392505050565b600080840361236657829050612412565b6000830361237657839050612412565b6000821561238a57600160f81b9050612392565b600060f81b90505b60008560001b8560001b836040516020016123af93929190613b86565b60405160208183030381529060405290506000815190506123ce612b09565b60006020905060006047905081838560208801845afa6123ed57600080fd5b826000600181106124015761240061334d565b5b602002015160001c96505050505050505b9392505050565b6060600061242683612941565b90506000602067ffffffffffffffff8111156124455761244461351b565b5b6040519080825280601f01601f1916602001820160405280156124775781602001600182028036833780820191505090505b5090508181528360208201528092505050919050565b60008082156124a257600160f81b90506124aa565b600060f81b90505b60008560001b8560001b836040516020016124c793929190613b86565b60405160208183030381529060405290506000815190506124e6612b09565b60006020905060006052905081838560208801845afa61250557600080fd5b826000600181106125195761251861334d565b5b602002015160001c96505050505050509392505050565b60007f000000000000000000000000000000000000000000000000000000000000000073ffffffffffffffffffffffffffffffffffffffff163073ffffffffffffffffffffffffffffffffffffffff161480156125ac57507f000000000000000000000000000000000000000000000000000000000000000046145b156125d9577f000000000000000000000000000000000000000000000000000000000000000090506125e4565b6125e1612991565b90505b90565b60006040517f190100000000000000000000000000000000000000000000000000000000000081528360028201528260228201526042812091505092915050565b60008060418351036126695760008060006020860151925060408601519150606086015160001a905061265d87828585612a27565b94509450505050612672565b60006002915091505b9250929050565b6000600481111561268d5761268c613449565b5b8160048111156126a05761269f613449565b5b03156127dc57600160048111156126ba576126b9613449565b5b8160048111156126cd576126cc613449565b5b0361270d576040517f08c379a000000000000000000000000000000000000000000000000000000000815260040161270490613c9f565b60405180910390fd5b6002600481111561272157612720613449565b5b81600481111561273457612733613449565b5b03612774576040517f08c379a000000000000000000000000000000000000000000000000000000000815260040161276b90613d0b565b60405180910390fd5b6003600481111561278857612787613449565b5b81600481111561279b5761279a613449565b5b036127db576040517f08c379a00000000000000000000000000000000000000000000000000000000081526004016127d290613d9d565b60405180910390fd5b5b50565b60606127e9612b2b565b8360001b816000600281106128015761280061334d565b5b602002018181525050828160016002811061281f5761281e61334d565b5b602002018181525050600060409050605467ffffffffffffffff8111156128495761284861351b565b5b6040519080825280601f01601f19166020018201604052801561287b5781602001600182028036833780820191505090505b5092506000604390506054848385845afa61289557600080fd5b50505092915050565b60008082156128b357600160f81b90506128bb565b600060f81b90505b60008560001b8560001b836040516020016128d893929190613b86565b60405160208183030381529060405290506000815190506128f7612b09565b60006020905060006056905081838560208801845afa61291657600080fd5b8260006001811061292a5761292961334d565b5b602002015160001c96505050505050509392505050565b60008060ff8360001c169050601f811115612988576040517fb3512b0c00000000000000000000000000000000000000000000000000000000815260040160405180910390fd5b80915050919050565b60007f8b73c3c69bb8fe3d512ecc4cf759cc79239f7b179b0ffacaa9a75d522b39400f7f00000000000000000000000000000000000000000000000000000000000000007f00000000000000000000000000000000000000000000000000000000000000004630604051602001612a0c959493929190613dbd565b60405160208183030381529060405280519060200120905090565b6000807f7fffffffffffffffffffffffffffffff5d576e7357a4501ddfe92f46681b20a08360001c1115612a62576000600391509150612b00565b600060018787878760405160008152602001604052604051612a879493929190613e10565b6020604051602081039080840390855afa158015612aa9573d6000803e3d6000fd5b505050602060405103519050600073ffffffffffffffffffffffffffffffffffffffff168173ffffffffffffffffffffffffffffffffffffffff1603612af757600060019250925050612b00565b80600092509250505b94509492505050565b6040518060200160405280600190602082028036833780820191505090505090565b6040518060400160405280600290602082028036833780820191505090505090565b600080fd5b600080fd5b600060ff82169050919050565b612b6d81612b57565b8114612b7857600080fd5b50565b600081359050612b8a81612b64565b92915050565b600063ffffffff82169050919050565b612ba981612b90565b8114612bb457600080fd5b50565b600081359050612bc681612ba0565b92915050565b60008060408385031215612be357612be2612b4d565b5b6000612bf185828601612b7b565b9250506020612c0285828601612bb7565b9150509250929050565b60028110612c1957600080fd5b50565b600081359050612c2b81612c0c565b92915050565b600060208284031215612c4757612c46612b4d565b5b6000612c5584828501612c1c565b91505092915050565b6000819050919050565b612c7181612c5e565b8114612c7c57600080fd5b50565b600081359050612c8e81612c68565b92915050565b600060208284031215612caa57612ca9612b4d565b5b6000612cb884828501612c7f565b91505092915050565b600073ffffffffffffffffffffffffffffffffffffffff82169050919050565b6000819050919050565b6000612d06612d01612cfc84612cc1565b612ce1565b612cc1565b9050919050565b6000612d1882612ceb565b9050919050565b6000612d2a82612d0d565b9050919050565b612d3a81612d1f565b82525050565b6000602082019050612d556000830184612d31565b92915050565b6000612d6682612cc1565b9050919050565b612d7681612d5b565b8114612d8157600080fd5b50565b600081359050612d9381612d6d565b92915050565b60008060408385031215612db057612daf612b4d565b5b6000612dbe85828601612d84565b9250506020612dcf85828601612c1c565b9150509250929050565b600080fd5b600080fd5b600080fd5b60008083601f840112612dfe57612dfd612dd9565b5b8235905067ffffffffffffffff811115612e1b57612e1a612dde565b5b602083019150836001820283011115612e3757612e36612de3565b5b9250929050565b600080600080600060608688031215612e5a57612e59612b4d565b5b6000612e6888828901612c1c565b955050602086013567ffffffffffffffff811115612e8957612e88612b52565b5b612e9588828901612de8565b9450945050604086013567ffffffffffffffff811115612eb857612eb7612b52565b5b612ec488828901612de8565b92509250509295509295909350565b6000612eee612ee9612ee484612c5e565b612ce1565b612c5e565b9050919050565b612efe81612ed3565b82525050565b6000604082019050612f196000830185612ef5565b612f266020830184612ef5565b9392505050565b60008060408385031215612f4457612f43612b4d565b5b6000612f5285828601612d84565b9250506020612f6385828601612d84565b9150509250929050565b60007fff0000000000000000000000000000000000000000000000000000000000000082169050919050565b612fa281612f6d565b82525050565b600081519050919050565b600082825260208201905092915050565b60005b83811015612fe2578082015181840152602081019050612fc7565b60008484015250505050565b6000601f19601f8301169050919050565b600061300a82612fa8565b6130148185612fb3565b9350613024818560208601612fc4565b61302d81612fee565b840191505092915050565b61304181612c5e565b82525050565b61305081612d5b565b82525050565b6000819050919050565b61306981613056565b82525050565b600081519050919050565b600082825260208201905092915050565b6000819050602082019050919050565b6130a481612c5e565b82525050565b60006130b6838361309b565b60208301905092915050565b6000602082019050919050565b60006130da8261306f565b6130e4818561307a565b93506130ef8361308b565b8060005b8381101561312057815161310788826130aa565b9750613112836130c2565b9250506001810190506130f3565b5085935050505092915050565b600060e082019050613142600083018a612f99565b81810360208301526131548189612fff565b905081810360408301526131688188612fff565b90506131776060830187613038565b6131846080830186613047565b61319160a0830185613060565b81810360c08301526131a381846130cf565b905098975050505050505050565b6131ba81612b57565b82525050565b60006020820190506131d560008301846131b1565b92915050565b600080604083850312156131f2576131f1612b4d565b5b600061320085828601612d84565b925050602061321185828601612b7b565b9150509250929050565b60006020820190506132306000830184612ef5565b92915050565b61323f81613056565b811461324a57600080fd5b50565b60008135905061325c81613236565b92915050565b6000806000806060858703121561327c5761327b612b4d565b5b600061328a87828801612b7b565b945050602061329b8782880161324d565b935050604085013567ffffffffffffffff8111156132bc576132bb612b52565b5b6132c887828801612de8565b925092505092959194509250565b600081519050919050565b600082825260208201905092915050565b60006132fd826132d6565b61330781856132e1565b9350613317818560208601612fc4565b61332081612fee565b840191505092915050565b6000602082019050818103600083015261334581846132f2565b905092915050565b7f4e487b7100000000000000000000000000000000000000000000000000000000600052603260045260246000fd5b600061339761339261338d84612b90565b612ce1565b612c5e565b9050919050565b6133a78161337c565b82525050565b60006060820190506133c26000830186613047565b6133cf6020830185613047565b6133dc604083018461339e565b949350505050565b60008115159050919050565b6133f9816133e4565b811461340457600080fd5b50565b600081519050613416816133f0565b92915050565b60006020828403121561343257613431612b4d565b5b600061344084828501613407565b91505092915050565b7f4e487b7100000000000000000000000000000000000000000000000000000000600052602160045260246000fd5b7f4f7264657220646f6573206e6f74206578697374000000000000000000000000600082015250565b60006134ae601483612fb3565b91506134b982613478565b602082019050919050565b600060208201905081810360008301526134dd816134a1565b9050919050565b60006060820190506134f960008301866131b1565b6135066020830185612ef5565b6135136040830184612ef5565b949350505050565b7f4e487b7100000000000000000000000000000000000000000000000000000000600052604160045260246000fd5b7f436c6f73652073656c6c206f72646572206265666f726520776974686472617760008201527f696e672062617365000000000000000000000000000000000000000000000000602082015250565b60006135a6602883612fb3565b91506135b18261354a565b604082019050919050565b600060208201905081810360008301526135d581613599565b9050919050565b7f436c6f736520627579206f72646572206265666f72652077697468647261776960008201527f6e672071756f7465000000000000000000000000000000000000000000000000602082015250565b6000613638602883612fb3565b9150613643826135dc565b604082019050919050565b600060208201905081810360008301526136678161362b565b9050919050565b60006040820190506136836000830185613047565b613690602083018461339e565b9392505050565b60006040820190506136ac6000830185613060565b6136b96020830184613060565b9392505050565b7f454950373132207369676e657220616e64207472616e73616374696f6e20736960008201527f676e657220646f206e6f74206d61746368000000000000000000000000000000602082015250565b600061371c603183612fb3565b9150613727826136c0565b604082019050919050565b6000602082019050818103600083015261374b8161370f565b9050919050565b7f4e487b7100000000000000000000000000000000000000000000000000000000600052602260045260246000fd5b6000600282049050600182168061379957607f821691505b6020821081036137ac576137ab613752565b5b50919050565b60008190508160005260206000209050919050565b60006020601f8301049050919050565b600082821b905092915050565b6000600883026138147fffffffffffffffffffffffffffffffffffffffffffffffffffffffffffffffff826137d7565b61381e86836137d7565b95508019841693508086168417925050509392505050565b6000819050919050565b61384983612ed3565b61385d61385582613836565b8484546137e4565b825550505050565b600090565b613872613865565b61387d818484613840565b505050565b5b818110156138a15761389660008261386a565b600181019050613883565b5050565b601f8211156138e6576138b7816137b2565b6138c0846137c7565b810160208510156138cf578190505b6138e36138db856137c7565b830182613882565b50505b505050565b600082821c905092915050565b6000613909600019846008026138eb565b1980831691505092915050565b600061392283836138f8565b9150826002028217905092915050565b61393b82612fa8565b67ffffffffffffffff8111156139545761395361351b565b5b61395e8254613781565b6139698282856138a5565b600060209050601f83116001811461399c576000841561398a578287015190505b6139948582613916565b8655506139fc565b601f1984166139aa866137b2565b60005b828110156139d2578489015182556001820191506020850194506020810190506139ad565b868310156139ef57848901516139eb601f8916826138f8565b8355505b6001600288020188555050505b505050505050565b7f43616e6e6f7420637265617465206f726465722c206578697374696e67206f7260008201527f6465722065786973747300000000000000000000000000000000000000000000602082015250565b6000613a60602a83612fb3565b9150613a6b82613a04565b604082019050919050565b60006020820190508181036000830152613a8f81613a53565b9050919050565b60006020820190508181036000830152613ab08184612fff565b905092915050565b6000819050602082019050919050565b6000613ad48251613056565b80915050919050565b6000613ae8826132d6565b82613af284613ab8565b9050613afd81613ac8565b92506020821015613b3d57613b387fffffffffffffffffffffffffffffffffffffffffffffffffffffffffffffffff836020036008026137d7565b831692505b5050919050565b6000819050919050565b613b5f613b5a82613056565b613b44565b82525050565b6000819050919050565b613b80613b7b82612f6d565b613b65565b82525050565b6000613b928286613b4e565b602082019150613ba28285613b4e565b602082019150613bb28284613b6f565b600182019150819050949350505050565b600081905092915050565b6000613bd9826132d6565b613be38185613bc3565b9350613bf3818560208601612fc4565b80840191505092915050565b6000613c0b8285613bce565b9150613c178284613b6f565b6001820191508190509392505050565b6000613c338285613b4e565b602082019150613c438284613b6f565b6001820191508190509392505050565b7f45434453413a20696e76616c6964207369676e61747572650000000000000000600082015250565b6000613c89601883612fb3565b9150613c9482613c53565b602082019050919050565b60006020820190508181036000830152613cb881613c7c565b9050919050565b7f45434453413a20696e76616c6964207369676e6174757265206c656e67746800600082015250565b6000613cf5601f83612fb3565b9150613d0082613cbf565b602082019050919050565b60006020820190508181036000830152613d2481613ce8565b9050919050565b7f45434453413a20696e76616c6964207369676e6174757265202773272076616c60008201527f7565000000000000000000000000000000000000000000000000000000000000602082015250565b6000613d87602283612fb3565b9150613d9282613d2b565b604082019050919050565b60006020820190508181036000830152613db681613d7a565b9050919050565b600060a082019050613dd26000830188613060565b613ddf6020830187613060565b613dec6040830186613060565b613df96060830185613038565b613e066080830184613047565b9695505050505050565b6000608082019050613e256000830187613060565b613e3260208301866131b1565b613e3f6040830185613060565b613e4c6060830184613060565b9594505050505056fea164736f6c6343000811000a",
  "linkReferences": {},
  "deployedLinkReferences": {}
}